{
  "_format": "hh-sol-artifact-1",
  "contractName": "SimpleLiquidityPool",
  "sourceName": "contracts/SimpleLiquidityPool.sol",
  "abi": [
    {
      "inputs": [
        {
          "internalType": "address",
          "name": "_token",
          "type": "address"
        }
      ],
      "stateMutability": "nonpayable",
      "type": "constructor"
    },
    {
      "anonymous": false,
      "inputs": [
        {
          "indexed": true,
          "internalType": "address",
          "name": "provider",
          "type": "address"
        },
        {
          "indexed": false,
          "internalType": "uint256",
          "name": "tokenAmount",
          "type": "uint256"
        },
        {
          "indexed": false,
          "internalType": "uint256",
          "name": "ethAmount",
          "type": "uint256"
        }
      ],
      "name": "LiquidityAdded",
      "type": "event"
    },
    {
      "inputs": [
        {
          "internalType": "uint256",
          "name": "_tokenAmount",
          "type": "uint256"
        }
      ],
      "name": "addLiquidity",
      "outputs": [],
      "stateMutability": "payable",
      "type": "function"
    },
    {
      "inputs": [
        {
          "internalType": "address",
          "name": "",
          "type": "address"
        }
      ],
      "name": "liquidityProviders",
      "outputs": [
        {
          "internalType": "uint256",
          "name": "",
          "type": "uint256"
        }
      ],
      "stateMutability": "view",
      "type": "function"
    },
    {
      "inputs": [],
      "name": "token",
      "outputs": [
        {
          "internalType": "contract IERC20",
          "name": "",
          "type": "address"
        }
      ],
      "stateMutability": "view",
      "type": "function"
    },
    {
      "inputs": [],
      "name": "totalLiquidity",
      "outputs": [
        {
          "internalType": "uint256",
          "name": "",
          "type": "uint256"
        }
      ],
      "stateMutability": "view",
      "type": "function"
    }
  ],
  "bytecode": "0x608060405234801561001057600080fd5b50604051610afb380380610afb833981810160405281019061003291906100db565b806000806101000a81548173ffffffffffffffffffffffffffffffffffffffff021916908373ffffffffffffffffffffffffffffffffffffffff16021790555050610108565b600080fd5b600073ffffffffffffffffffffffffffffffffffffffff82169050919050565b60006100a88261007d565b9050919050565b6100b88161009d565b81146100c357600080fd5b50565b6000815190506100d5816100af565b92915050565b6000602082840312156100f1576100f0610078565b5b60006100ff848285016100c6565b91505092915050565b6109e4806101176000396000f3fe60806040526004361061003f5760003560e01c806315770f921461004457806351c6590a1461006f578063dbd942671461008b578063fc0c546a146100c8575b600080fd5b34801561005057600080fd5b506100596100f3565b6040516100669190610459565b60405180910390f35b610089600480360381019061008491906104a5565b6100f9565b005b34801561009757600080fd5b506100b260048036038101906100ad9190610530565b610404565b6040516100bf9190610459565b60405180910390f35b3480156100d457600080fd5b506100dd61041c565b6040516100ea91906105bc565b60405180910390f35b60015481565b6000811161013c576040517f08c379a00000000000000000000000000000000000000000000000000000000081526004016101339061065a565b60405180910390fd5b6000341161017f576040517f08c379a0000000000000000000000000000000000000000000000000000000008152600401610176906106ec565b60405180910390fd5b600034905060008054906101000a900473ffffffffffffffffffffffffffffffffffffffff1673ffffffffffffffffffffffffffffffffffffffff166323b872dd3330856040518463ffffffff1660e01b81526004016101e19392919061071b565b6020604051808303816000875af1158015610200573d6000803e3d6000fd5b505050506040513d601f19601f82011682018060405250810190610224919061078a565b5060006001540361023b578060018190555061035a565b60008060009054906101000a900473ffffffffffffffffffffffffffffffffffffffff1673ffffffffffffffffffffffffffffffffffffffff166370a08231306040518263ffffffff1660e01b815260040161029791906107b7565b602060405180830381865afa1580156102b4573d6000803e3d6000fd5b505050506040513d601f19601f820116820180604052508101906102d891906107e7565b9050600047905060008183856102ee9190610843565b6102f891906108b4565b90508085101561033d576040517f08c379a000000000000000000000000000000000000000000000000000000000815260040161033490610931565b60405180910390fd5b836001600082825461034f9190610951565b925050819055505050505b80600260003373ffffffffffffffffffffffffffffffffffffffff1673ffffffffffffffffffffffffffffffffffffffff16815260200190815260200160002060008282546103a99190610951565b925050819055503373ffffffffffffffffffffffffffffffffffffffff167fac1d76749e5447b7b16f5ab61447e1bd502f3bb4807af3b28e620d1700a6ee4583836040516103f8929190610985565b60405180910390a25050565b60026020528060005260406000206000915090505481565b60008054906101000a900473ffffffffffffffffffffffffffffffffffffffff1681565b6000819050919050565b61045381610440565b82525050565b600060208201905061046e600083018461044a565b92915050565b600080fd5b61048281610440565b811461048d57600080fd5b50565b60008135905061049f81610479565b92915050565b6000602082840312156104bb576104ba610474565b5b60006104c984828501610490565b91505092915050565b600073ffffffffffffffffffffffffffffffffffffffff82169050919050565b60006104fd826104d2565b9050919050565b61050d816104f2565b811461051857600080fd5b50565b60008135905061052a81610504565b92915050565b60006020828403121561054657610545610474565b5b60006105548482850161051b565b91505092915050565b6000819050919050565b600061058261057d610578846104d2565b61055d565b6104d2565b9050919050565b600061059482610567565b9050919050565b60006105a682610589565b9050919050565b6105b68161059b565b82525050565b60006020820190506105d160008301846105ad565b92915050565b600082825260208201905092915050565b7f546f6b656e20616d6f756e74206d75737420626520677265617465722074686160008201527f6e207a65726f0000000000000000000000000000000000000000000000000000602082015250565b60006106446026836105d7565b915061064f826105e8565b604082019050919050565b6000602082019050818103600083015261067381610637565b9050919050565b7f45544820616d6f756e74206d7573742062652067726561746572207468616e2060008201527f7a65726f00000000000000000000000000000000000000000000000000000000602082015250565b60006106d66024836105d7565b91506106e18261067a565b604082019050919050565b60006020820190508181036000830152610705816106c9565b9050919050565b610715816104f2565b82525050565b6000606082019050610730600083018661070c565b61073d602083018561070c565b61074a604083018461044a565b949350505050565b60008115159050919050565b61076781610752565b811461077257600080fd5b50565b6000815190506107848161075e565b92915050565b6000602082840312156107a05761079f610474565b5b60006107ae84828501610775565b91505092915050565b60006020820190506107cc600083018461070c565b92915050565b6000815190506107e181610479565b92915050565b6000602082840312156107fd576107fc610474565b5b600061080b848285016107d2565b91505092915050565b7f4e487b7100000000000000000000000000000000000000000000000000000000600052601160045260246000fd5b600061084e82610440565b915061085983610440565b925082820261086781610440565b9150828204841483151761087e5761087d610814565b5b5092915050565b7f4e487b7100000000000000000000000000000000000000000000000000000000600052601260045260246000fd5b60006108bf82610440565b91506108ca83610440565b9250826108da576108d9610885565b5b828204905092915050565b7f496e73756666696369656e7420746f6b656e20616d6f756e7400000000000000600082015250565b600061091b6019836105d7565b9150610926826108e5565b602082019050919050565b6000602082019050818103600083015261094a8161090e565b9050919050565b600061095c82610440565b915061096783610440565b925082820190508082111561097f5761097e610814565b5b92915050565b600060408201905061099a600083018561044a565b6109a7602083018461044a565b939250505056fea2646970667358221220c37cc4ac91fb00914da96049e193c06ed8a4304e0c7885ac02a16fd48ba6d57064736f6c63430008120033",
  "linkReferences": {},
  "deployedLinkReferences": {}
}